:0400000024EF76F083
:10EBFC008D9412008D8412001BEC76F0C5801200EF
:10EC0C001BEC76F0C58412001BEC76F002C0C9FF39
:10EC1C001200036E8C94035067EC77F01200036EB5
:10EC2C008C84035067EC77F01200C7B4FED7C5CFC5
:10EC3C0001F01F0E0116D8B41200F7D700EE6BF0DE
:10EC4C00080EEE6AE806FDE1000EF86E000147EFD3
:10EC5C007BF0026E02B002D08D9001D08D8001B09D
:10EC6C0002D08D9201D08D821200036E000E026EC6
:10EC7C003A0E036005D02F0E036402D0010E026E13
:10EC8C0002C001F00130120002EC76F0000E036EAF
:10EC9C00000E026E0AEC76F0000E036E000E026E91
:10ECAC000AEC76F006EC76F0120009C001F00AC00E
:10ECBC0002F0036A8E0E046E000E056EF3EC78F013
:10ECCC0001C009F002C00AF003C00BF01200026E82
:10ECDC001BEC76F0C5861BEC76F0C9CF03F01BEC71
:10ECEC0076F00250D8A402D0C58A01D0C59AC58846
:10ECFC000350120001500302F3CF05F0F4CF06F0DD
:10ED0C0001500402F350062602500302F35006266B
:10ED1C0005C001F006C002F0120002EC76F0000E05
:10ED2C00036ED00E026E0AEC76F0000E036E000E2F
:10ED3C00026E0AEC76F0000E046E010E046401D033
:10ED4C0008D0000E036E000E026E0AEC76F0042A58
:10ED5C00F4D706EC76F01200076E02EC76F0000E9B
:10ED6C00036EE00E026E0AEC76F007C004F0010EA2
:10ED7C00056E000E066E042A03D0D89005360636B2
:10ED8C00042EFBD705C002F006C003F00AEC76F0A7
:10ED9C0006EC76F012000A500B10D8B418D0010E05
:10EDAC000C6E04D0D8900A360B360C2A0BAEFAD760
:10EDBC000A50085C0B500958D8A004D00A50085EC1
:10EDCC000B50095AD8900B320A320C2EF1D708C0CE
:10EDDC0008F009C009F01200310E046EB20EE82ED4
:10EDEC00FED7042EFCD700D0330E0FEC76F0320E8B
:10EDFC000FEC76F0280E0FEC76F00C0E0FEC76F094
:10EE0C00060E0FEC76F0010E0FEC76F0310E046E60
:10EE1C00B20EE82EFED7042EFCD700D01200096EDD
:10EE2C0006C004F007C005F0BFEC77F020EE01F04F
:10EE3C000650D9260750DA22DF50D8B409D006C0C4
:10EE4C00D9FF07C0DAFF3B0EDF6402D0010E1200BF
:10EE5C0081A20CD0070E0918D8A408D081B2FED715
:10EE6C0000F000F089688D68010E1200000E12008F
:10EE7C00000E066E000E056E03500410D8B41CD0A4
:10EE8C00010E076E04D0D89003360436072A04AE60
:10EE9C00FAD7D890053606360350015C0450025858
:10EEAC00D8A005D00350015E0450025A0580D890BA
:10EEBC0004320332072EEDD705C001F006C002F074
:10EECC001200026E0250F00B016E8C500F0B8C6E08
:10EEDC0001508C108C6E8C96140EE82EFED700D040
:10EEEC008C86140EE82EFED700D00238F00B026E82
:10EEFC000250F00B016E8C500F0B8C6E01508C106D
:10EF0C008C6E8C96140EE82EFED700D08C86140EC8
:10EF1C00E82EFED700D01200000EC76E280EC66E6B
:10EF2C00000EC56E800E016E960E026E980E036E6C
:10EF3C00000E046E0EC012F00FC013F010C014F0CF
:10EF4C0011C015F0020ED890123613361436153641
:10EF5C00E82EF9D712C005F013C006F014C007F064
:10EF6C0015C008F06AEC78F00104C86E9486948899
:10EF7C00120002EC76F0000E036ED00E026E0AEC5C
:10EF8C0076F0000E036E000E026E0AEC76F006ECC4
:10EF9C0076F002EC76F0000E036ED10E026E0AECE7
:10EFAC0076F0010E6DEC76F004C0D9FF05C0DAFFE7
:10EFBC00DF6E20EE01F00450D9260550DA22000E47
:10EFCC006DEC76F0DF6E06EC76F01200036E89685D
:10EFDC00A30E016E550EE82EFED7012EFCD700F0C5
:10EFEC00040E03602FD00350020DF3CF01F0FF0E7F
:10EFFC000126010E026E012A02D0D8900236012E93
:10F00C00FCD70250896E000E046E090E046401D008
:10F01C000ED0020E026E3F0E016E2B0EE82EFED7A6
:10F02C00012EFCD7022EFAD700F0042AEED7030EDD
:10F03C00026E8A0E016E560EE82EFED7012EFCD7FC
:10F04C00022EFAD789681200036E896809D089806C
:10F05C00899210D0898489960DD08988899A0AD092
:10F06C000350010AD8B4F3D7030AD8B4F3D7010A72
:10F07C00D8B4F3D789BC02D0898C01D0899C89BEC5
:10F08C0002D0898E01D0899E000E046E090E046494
:10F09C0001D00ED0020E026E3F0E016E2B0EE82E2A
:10F0AC00FED7012EFCD7022EFAD700F0042AEED799
:10F0BC00030E026EAA0E016ECE0EE82EFED7012EA6
:10F0CC00FCD7022EFAD71200000E096E000E0A6E43
:10F0DC00000E0B6E000E0C6E05500610071008107B
:10F0EC00D8B42AD0010E0D6E06D0D890053606364F
:10F0FC00073608360D2A08AEF8D7D89009360A36E6
:10F10C000B360C360550015C06500258075003585C
:10F11C0008500458D8A009D00550015E0650025A78
:10F12C000750035A0850045A0980D8900832073205
:10F13C00063205320D2EE1D709C001F00AC002F0EB
:10F14C000BC003F00CC004F012000EAE16D00CC0B5
:10F15C0012F00DC013F00EC014F0121E131E141E6C
:10F16C00122A000E13221422000E12240C6E000E12
:10F17C0013200D6E800E14200E6E11AE16D00FC023
:10F18C0012F010C013F011C014F0121E131E141E36
:10F19C00122A000E13221422000E12240F6E000EDF
:10F1AC001320106E800E1420116E000E0C1A000E1F
:10F1BC000D1A800E0E1A000E0F1A000E101A800E69
:10F1CC00111A0F500C5C10500D5811500E58D8B02D
:10F1DC0002D0D8901200D88012000450D8B405D0B8
:10F1EC00015002100310D8A40CD0000E016E000EBA
:10F1FC00026E000E036E1200042AD8900332023203
:10F20C000132000E0114066E000E0214076EFE0E83
:10F21C000314086E065007100810D8B40CD0ECD7A5
:10F22C00042A010E0126000E0222000E0322D890A1
:10F23C00033202320132000E0114066E000E02146B
:10F24C00076EFF0E0314086E065007100810D8B492
:10F25C0006D0E6D70406D89001360236033602BE35
:10F26C0003D0020E0460F6D704A0029ED89004329C
:10F27C00045003120550D8A4038E01C001F002C043
:10F28C0002F003C003F0120002EC76F0000E036EE5
:10F29C00520E026E0AEC76F0000E036E800E026EB9
:10F2AC000AEC76F0000E036E030E026E0AEC76F09A
:10F2BC0006EC76F002EC76F0000E036E520E026E47
:10F2CC000AEC76F0000E036EB40E026E0AEC76F0C9
:10F2DC0002EC76F0000E036E530E026E0AEC76F022
:10F2EC00010E6DEC76F00AC0D9FF0BC0DAFFDF6EB1
:10F2FC0020EE01F00A50D9260B50DA22010E6DECEB
:10F30C0076F0DF6E010E6DEC76F004C0D9FF05C00F
:10F31C00DAFFDF6E20EE01F00450D9260550DA2218
:10F32C00010E6DEC76F0DF6E010E6DEC76F006C022
:10F33C00D9FF07C0DAFFDF6E20EE01F00650D926A8
:10F34C000750DA22010E6DEC76F0DF6E010E6DECDB
:10F35C0076F008C0D9FF09C0DAFFDF6E20EE01F0AD
:10F36C000850D9260950DA22000E6DEC76F0DF6ECB
:10F37C0006EC76F012000F0E186E000E196E74D19A
:10F38C00250E2018D8B404D0205015EC76F06CD192
:10F39C00000E1F6E000E1E6E000E1D6E03D01D841F
:10F3AC000D4A0E2A0DC0F6FF0EC0F7FF0800F550EF
:10F3BC00300AD8B4F4D70DC0F6FF0EC0F7FF080022
:10F3CC00F5503BEC76F0D8A035D0000E1F6E000E39
:10F3DC001E6E1EC001F01FC002F0000E046E0A0E5D
:10F3EC00036E80EC76F001C01EF002C01FF0D00E50
:10F3FC00136EFF0E146E0DC0F6FF0EC0F7FF080063
:10F40C00F550156E166A1350152614501622155009
:10F41C001E2616501F220D4A0E2A0DC0F6FF0EC0D6
:10F42C00F7FF0800F5503BEC76F0D8A003D0D1D70D
:10F43C001D8E17D00DC0F6FF0EC0F7FF0D4A0E2A19
:10F44C000800F5CF20F02050000AD8B41200640A4E
:10F45C00D8B407D00D0AD8B404D0110AD8B4E8D760
:10F46C0003D11DBE15D018C0D9FF19C0DAFFDECFED
:10F47C001BF0DDCF1CF0020E1826000E19221CAE5C
:10F48C0044D0030E1D121B6C1C1ED8B01C2A3DD080
:10F49C0018C0D9FF19C0DAFFDECF1BF0DDCF1CF08E
:10F4AC00020E1826000E192230D0010E206E050E09
:10F4BC002018D8B432D02050020DB50EF324F66EBD
:10F4CC00FE0EF420F76E0900F5501B5C0900F55098
:10F4DC001C58D8A022D0202AEAD7010E206E040E88
:10F4EC002018D8B41AD02050020DBF0EF324F66E9B
:10F4FC00FE0EF420F76E0900F5501B5C0900F55068
:10F50C001C58D8A00AD0202AEAD71D50800B000A1C
:10F51C00D8B4CBD7800AD8B4E0D71E501F10D8B4BB
:10F52C0009D01DC013F0030E1316D8B403D01E0659
:10F53C00D8A01F06800E20BE7F0E136E1E50205CBE
:10F54C001F50800A1358D8B007D020501E5E000EF2
:10F55C0020BEFF0E1F5A04D0000E1F6E000E1E6E32
:10F56C001DA414D01DC013F0030E1316D8B403D071
:10F57C002D0E15EC76F01E501F10D8B41ED0300E88
:10F58C0015EC76F01E06D8A01F06F5D71E501F10DE
:10F59C00D8B40AD0200E15EC76F01E06D8A01F06A3
:10F5AC001E501F10D8A4F6D71DC013F0030E13164F
:10F5BC00D8B403D02D0E15EC76F020C01AF050D034
:10F5CC001A50020DB50EF324F66EFE0EF420F76EF3
:10F5DC000900F5CF03F00A00F5CF04F01BC001F0D1
:10F5EC001CC002F03EEC77F001C008F002C009F03C
:10F5FC00000E0B6E0A0E0A6ED1EC76F00850300F2E
:10F60C00206E2BD01BC001F01CC002F01A50020D52
:10F61C00BF0EF324F66EFE0EF420F76E0900F5CF44
:10F62C0003F00A00F5CF04F03EEC77F001500F0B1D
:10F63C00176E1750010D000EF324F66EFF0EF4201A
:10F64C00F76E0800F5CF20F008D01D50800B000A93
:10F65C00D8B4B6D7800AD8B4D5D7205015EC76F0EC
:10F66C001A061A28D8A4F1D70DC0F6FF0EC0F7FF62
:10F67C000D4A0E2A0800F5CF20F02050D8B4120005
:10F68C007FD6F00ED36E000E926E93689468000EC7
:10F69C00956E000E966E000E8A6E89688D68000E4F
:10F6AC00C26EFE0EC16EF2EC76F020EE6BF010EE38
:10F6BC0062F0070EDBCFE3FFE806FCE2800E0FECF6
:10F6CC0076F0210E216E760EE82EFED7212EFCD779
:10F6DC0000D0540E0D6EFF0E0E6EC1EC79F0C00E04
:10F6EC000FEC76F0210E216E760EE82EFED7212E31
:10F6FC00FCD700D0D10E0D6EFF0E0E6EC1EC79F062
:10F70C0081380F0B0F0B376E81A2FAD7030E371807
:10F71C00D8A4F6D781B2FED700F000F0010E0FECA2
:10F72C0076F0210E216E760EE82EFED7212EFCD718
:10F73C0000D0800E0FEC76F0210E216E760EE82EA6
:10F74C00FED7212EFCD700D0F50E0D6EFF0E0E6EDF
:10F75C00C1EC79F0C00E0FEC76F0210E216E760E16
:10F76C00E82EFED7212EFCD700D0110E0D6EFF0E09
:10F77C000E6EC1EC79F0100E0E6E270E0F6E000E91
:10F78C00106E000E116E92EC77F0F29E93EC76F008
:10F79C0081380F0B0F0B616E040E6A6E010EB2EC0A
:10F7AC0076F0390E046E000E056E250E066E000EF8
:10F7BC00076E3B0E086E000E096E550E0A6E000E9B
:10F7CC000B6E4AEC79F0020EB2EC76F03F0E046E42
:10F7DC00000E056E270E066E000E076E410E086EAB
:10F7EC00000E096E3D0E0A6E000E0B6E4AEC79F09F
:10F7FC00030EB2EC76F0430E046E000E056E290E6D
:10F80C00066E000E076E450E086E000E096E570E42
:10F81C000A6E000E0B6E4AEC79F0010E0FEC76F0CE
:10F82C00210E216E760EE82EFED7212EFCD700D0AD
:10F83C00800E0FEC76F0210E216E760EE82EFED7A0
:10F84C00212EFCD700D0730E0D6EFF0E0E6E56C01F
:10F85C000FF0106A55C011F0126AC1EC79F0C00EAD
:10F86C000FEC76F0210E216E760EE82EFED7212EAF
:10F87C00FCD700D0810E0D6EFF0E0E6E58C00FF02F
:10F88C00106A57C011F0126AC1EC79F039503AC0C5
:10F89C0021F0226A21C022F0216A2110596E2250D7
:10F8AC005A6E3B503CC021F0226A21C022F0216AE2
:10F8BC0021105B6E22505C6E555056C021F0226AAE
:10F8CC0021C022F0216A2110476E2250486E3F5011
:10F8DC0040C021F0226A21C022F0216A2110496E19
:10F8EC0022504A6E415042C021F0226A21C022F0BF
:10F8FC00216A21104B6E22504C6E3D503EC021F0BF
:10F90C00226A21C022F0216A21102B6E22502C6E0B
:10F91C00435044C021F0226A21C022F0216A2110F8
:10F92C004D6E22504E6E455046C021F0226A21C0C9
:10F93C0022F0216A21104F6E2250506E575058C041
:10F94C0021F0226A21C022F0216A2110516E22502E
:10F95C00526E59C001F05AC002F05BC003F05CC09B
:10F96C0004F03EEC77F001C02DF002C02EF049C03F
:10F97C0001F04AC002F04BC003F04CC004F03EEC66
:10F98C0077F001C02FF002C030F05B505924216E8B
:10F99C005C505A20226E475021245D6E4850222024
:10F9AC005E6E4B504924216E4C504A20226E2B50D7
:10F9BC002124536E2C502220546E5BC001F05CC08D
:10F9CC0002F059C003F05AC004F03EEC77F001C0CD
:10F9DC0031F002C032F04FC001F050C002F04DC007
:10F9EC0003F04EC004F03EEC77F001C033F002C0DF
:10F9FC0034F04F504D24216E50504E20226E5150F9
:10FA0C002124236E52502220246E660E0C6EE60EBC
:10FA1C000D6E3F0E0E6E2DC009F02EC00AF05BEC81
:10FA2C0076F009C00FF00AC010F00BC011F0ABEC6F
:10FA3C0078F0D8B006D0110E535C270E5458D8B0BD
:10FA4C001CD0660E0C6EE60E0D6E3F0E0E6E2FC0A9
:10FA5C0009F030C00AF05BEC76F009C00FF00AC078
:10FA6C0010F00BC011F0ABEC78F0D8B010D0110E38
:10FA7C005D5C270E5E58D8A00AD0010E6A6E6A50E3
:10FA8C00ECEC77F0FEEC75F0624A632A7BD0110E39
:10FA9C00535C270E5458D8B006D0110E5D5C270E5F
:10FAAC005E58D8A00AD0020E6A6E6A50ECEC77F061
:10FABC00FEEC75F0644A652A65D0660E0C6E660E17
:10FACC000D6E3F0E0E6E31C009F032C00AF05BECC9
:10FADC0076F009C00FF00AC010F00BC011F0ABECBF
:10FAEC0078F0D8A016D0660E0C6E660E0D6E3F0E1A
:10FAFC000E6E33C009F034C00AF05BEC76F009C02E
:10FB0C000FF00AC010F00BC011F0ABEC78F0D8B0CD
:10FB1C000AD0030E6A6E6A50ECEC77F0FEEC75F0CE
:10FB2C00664A672A2FD0F10E5D5C0A0E5E58D8B07B
:10FB3C0020D0000E0C6E800E0D6E3F0E0E6E47C068
:10FB4C0003F048C004F051C001F052C002F03EEC8A
:10FB5C0077F001C009F002C00AF05BEC76F009C046
:10FB6C000FF00AC010F00BC011F0ABEC78F0D8B06D
:10FB7C0009D0040E6A6E6A50ECEC77F0FEEC75F06E
:10FB8C00684A692A5F0E066E000E076E615015EC0E
:10FB9C0077F0E806D8B465D0010E016E000E2FEC9C
:10FBAC0076F00F0E226E4F0E216E4A0EE82EFED707
:10FBBC00212EFCD7222EFAD700D000EC76F05F0E67
:10FBCC00066E000E076E615015EC77F0E806D8B49F
:10FBDC0048D089680B0E226E260E216E5E0EE82E22
:10FBEC00FED7212EFCD7222EFAD7060E226E130E2C
:10FBFC00216EAE0EE82EFED7212EFCD7222EFAD780
:10FC0C00000E016E010E2FEC76F05F0E066E000EEC
:10FC1C00076E615015EC77F0E806D8B422D06A5024
:10FC2C002AEC78F089685F0E066E000E076E615044
:10FC3C0015EC77F0E806D8B414D066506424216E25
:10FC4C0067506520226E685021266950222262502E
:10FC5C00212663502222225004E10A0E215CD8A0F6
:10FC6C0097D5010EB2EC76F04AEC76F0020EB2ECBF
:10FC7C0076F04AEC76F0030EB2EC76F04AEC76F0C5
:10FC8C00000E016E000E2FEC76F0010E0FEC76F0EC
:10FC9C00210E216E760EE82EFED7212EFCD700D039
:10FCAC00220E0D6EFF0E0E6EC1EC79F0C00E0FEC35
:10FCBC0076F0210E216E760EE82EFED7212EFCD783
:10FCCC0000D0E90E0D6EFF0E0E6EC1EC79F0665091
:10FCDC006424216E67506520226E6850212669507D
:10FCEC00222262502124356E63502220366E8138D8
:10FCFC000F0B0F0B386E81A2FAD781B2FED7010E13
:10FD0C000FEC76F0210E216E760EE82EFED7212E0A
:10FD1C00FCD700D0800E0FEC76F0210E216E760E03
:10FD2C00E82EFED7212EFCD700D0AAD0C40E0D6E23
:10FD3C00FF0E0E6EC1EC79F0C00E0FEC76F0210EBA
:10FD4C00216E760EE82EFED7212EFCD700D0640E45
:10FD5C000D6EFF0E0E6E62C00FF063C010F0C1ECA2
:10FD6C0079F0C5D7440E0D6EFF0E0E6EC1EC79F016
:10FD7C00C00E0FEC76F0210E216E760EE82EFED71B
:10FD8C00212EFCD700D09D0E0D6EFF0E0E6E64C0A2
:10FD9C000FF065C010F0C1EC79F0A9D78F0E0D6E85
:10FDAC00FF0E0E6EC1EC79F0C00E0FEC76F0210E4A
:10FDBC00216E760EE82EFED7212EFCD700D0AA0E8F
:10FDCC000D6EFF0E0E6E66C00FF067C010F0C1EC2A
:10FDDC0079F08DD7330E0D6EFF0E0E6EC1EC79F0EF
:10FDEC00C00E0FEC76F0210E216E760EE82EFED7AB
:10FDFC00212EFCD700D0B70E0D6EFF0E0E6E68C014
:10FE0C000FF069C010F0C1EC79F071D7EE0E0D6EE9
:10FE1C00FE0E0E6EC1EC79F0C00E0FEC76F0210EDA
:10FE2C00216E760EE82EFED7212EFCD700D0DD0EEB
:10FE3C000D6EFF0E0E6E35C00FF036C010F0C1EC1B
:10FE4C0079F055D7DB0E0D6EFE0E0E6EC1EC79F00F
:10FE5C00C00E0FEC76F0210E216E760EE82EFED73A
:10FE6C00212EFCD700D0C70E0D6EFE0E0E6E60C09C
:10FE7C000FF0106A5FC011F0126AC1EC79F037D73D
:10FE8C003850010AD8B452D7030AD8B46BD7070A32
:10FE9C00D8B484D7030AD8B49DD70F0AD8B4B6D730
:10FEAC00030AD8B4CFD723D70001000A006400E8B6
:10FEBC0003102701001000000100102530327820BB
:10FECC006D696E2E2025303278207365632E0054B8
:10FEDC006F74616C2074696D652074616B656E3A2A
:10FEEC002000546F74616C206E756D626572206FAA
:10FEFC006620200030313233343536373839616280
:10FF0C0063646566005072657373204220746F20C1
:10FF1C0073746F702E005075736820322C332C352F
:10FF2C002C362C382C390045534B4120776974689A
:10FF3C006F75742063617000594F50207769746835
:10FF4C006F757420636170002853746172747570DE
:10FF5C0029205072657373002862696E2023312941
:10FF6C003A20253032780043313A2530327820253A
:10FF7C00303278200043333A253032782025303225
:10FF8C0078200045534B4120776974682063617079
:10FF9C00002862696E202332293A202564002862E9
:10FFAC00696E202333293A202564002862696E206B
:10FFBC002334293A20256400594F502077697468FE
:10FFCC0020636170004120746F20626567696E2E3A
:10FFDC0000626F74746C65733A20256400746F2032
:10FFEC0076696577206C6F6700536F7274696E6702
:03FFFC002E0000D4
:020000040020DA
:08000000FFFFFFFFFFFFFFFF00
:020000040030CA
:0E000000FF081F1EFF8381FF0FC00FE00F409F
:00000001FF
